{
    "_format": "hh-sol-artifact-1",
    "contractName": "InterPlanetaryFontNFT",
    "sourceName": "contracts/InterPlanetaryFontNFT.sol",
    "abi": [
        {
            "inputs": [],
            "stateMutability": "nonpayable",
            "type": "constructor"
        },
        {
            "anonymous": false,
            "inputs": [
                {
                    "indexed": true,
                    "internalType": "address",
                    "name": "owner",
                    "type": "address"
                },
                {
                    "indexed": true,
                    "internalType": "address",
                    "name": "approved",
                    "type": "address"
                },
                {
                    "indexed": true,
                    "internalType": "uint256",
                    "name": "tokenId",
                    "type": "uint256"
                }
            ],
            "name": "Approval",
            "type": "event"
        },
        {
            "anonymous": false,
            "inputs": [
                {
                    "indexed": true,
                    "internalType": "address",
                    "name": "owner",
                    "type": "address"
                },
                {
                    "indexed": true,
                    "internalType": "address",
                    "name": "operator",
                    "type": "address"
                },
                {
                    "indexed": false,
                    "internalType": "bool",
                    "name": "approved",
                    "type": "bool"
                }
            ],
            "name": "ApprovalForAll",
            "type": "event"
        },
        {
            "anonymous": false,
            "inputs": [
                {
                    "indexed": true,
                    "internalType": "address",
                    "name": "previousOwner",
                    "type": "address"
                },
                {
                    "indexed": true,
                    "internalType": "address",
                    "name": "newOwner",
                    "type": "address"
                }
            ],
            "name": "OwnershipTransferred",
            "type": "event"
        },
        {
            "anonymous": false,
            "inputs": [
                {
                    "indexed": false,
                    "internalType": "address",
                    "name": "account",
                    "type": "address"
                }
            ],
            "name": "Paused",
            "type": "event"
        },
        {
            "anonymous": false,
            "inputs": [
                {
                    "indexed": true,
                    "internalType": "address",
                    "name": "from",
                    "type": "address"
                },
                {
                    "indexed": true,
                    "internalType": "address",
                    "name": "to",
                    "type": "address"
                },
                {
                    "indexed": true,
                    "internalType": "uint256",
                    "name": "tokenId",
                    "type": "uint256"
                }
            ],
            "name": "Transfer",
            "type": "event"
        },
        {
            "anonymous": false,
            "inputs": [
                {
                    "indexed": false,
                    "internalType": "address",
                    "name": "account",
                    "type": "address"
                }
            ],
            "name": "Unpaused",
            "type": "event"
        },
        {
            "inputs": [
                {
                    "internalType": "address",
                    "name": "to",
                    "type": "address"
                },
                {
                    "internalType": "uint256",
                    "name": "tokenId",
                    "type": "uint256"
                }
            ],
            "name": "approve",
            "outputs": [],
            "stateMutability": "nonpayable",
            "type": "function"
        },
        {
            "inputs": [
                {
                    "internalType": "address",
                    "name": "owner",
                    "type": "address"
                }
            ],
            "name": "balanceOf",
            "outputs": [
                {
                    "internalType": "uint256",
                    "name": "",
                    "type": "uint256"
                }
            ],
            "stateMutability": "view",
            "type": "function"
        },
        {
            "inputs": [
                {
                    "internalType": "uint256",
                    "name": "tokenId",
                    "type": "uint256"
                }
            ],
            "name": "burn",
            "outputs": [],
            "stateMutability": "nonpayable",
            "type": "function"
        },
        {
            "inputs": [
                {
                    "internalType": "uint256",
                    "name": "tokenId",
                    "type": "uint256"
                }
            ],
            "name": "getApproved",
            "outputs": [
                {
                    "internalType": "address",
                    "name": "",
                    "type": "address"
                }
            ],
            "stateMutability": "view",
            "type": "function"
        },
        {
            "inputs": [
                {
                    "internalType": "address",
                    "name": "owner",
                    "type": "address"
                },
                {
                    "internalType": "address",
                    "name": "operator",
                    "type": "address"
                }
            ],
            "name": "isApprovedForAll",
            "outputs": [
                {
                    "internalType": "bool",
                    "name": "",
                    "type": "bool"
                }
            ],
            "stateMutability": "view",
            "type": "function"
        },
        {
            "inputs": [],
            "name": "name",
            "outputs": [
                {
                    "internalType": "string",
                    "name": "",
                    "type": "string"
                }
            ],
            "stateMutability": "view",
            "type": "function"
        },
        {
            "inputs": [],
            "name": "owner",
            "outputs": [
                {
                    "internalType": "address",
                    "name": "",
                    "type": "address"
                }
            ],
            "stateMutability": "view",
            "type": "function"
        },
        {
            "inputs": [
                {
                    "internalType": "uint256",
                    "name": "tokenId",
                    "type": "uint256"
                }
            ],
            "name": "ownerOf",
            "outputs": [
                {
                    "internalType": "address",
                    "name": "",
                    "type": "address"
                }
            ],
            "stateMutability": "view",
            "type": "function"
        },
        {
            "inputs": [],
            "name": "pause",
            "outputs": [],
            "stateMutability": "nonpayable",
            "type": "function"
        },
        {
            "inputs": [],
            "name": "paused",
            "outputs": [
                {
                    "internalType": "bool",
                    "name": "",
                    "type": "bool"
                }
            ],
            "stateMutability": "view",
            "type": "function"
        },
        {
            "inputs": [],
            "name": "renounceOwnership",
            "outputs": [],
            "stateMutability": "nonpayable",
            "type": "function"
        },
        {
            "inputs": [
                {
                    "internalType": "address",
                    "name": "to",
                    "type": "address"
                },
                {
                    "internalType": "string",
                    "name": "uri",
                    "type": "string"
                }
            ],
            "name": "safeMint",
            "outputs": [
                {
                    "internalType": "uint256",
                    "name": "",
                    "type": "uint256"
                }
            ],
            "stateMutability": "nonpayable",
            "type": "function"
        },
        {
            "inputs": [
                {
                    "internalType": "address",
                    "name": "from",
                    "type": "address"
                },
                {
                    "internalType": "address",
                    "name": "to",
                    "type": "address"
                },
                {
                    "internalType": "uint256",
                    "name": "tokenId",
                    "type": "uint256"
                }
            ],
            "name": "safeTransferFrom",
            "outputs": [],
            "stateMutability": "nonpayable",
            "type": "function"
        },
        {
            "inputs": [
                {
                    "internalType": "address",
                    "name": "from",
                    "type": "address"
                },
                {
                    "internalType": "address",
                    "name": "to",
                    "type": "address"
                },
                {
                    "internalType": "uint256",
                    "name": "tokenId",
                    "type": "uint256"
                },
                {
                    "internalType": "bytes",
                    "name": "data",
                    "type": "bytes"
                }
            ],
            "name": "safeTransferFrom",
            "outputs": [],
            "stateMutability": "nonpayable",
            "type": "function"
        },
        {
            "inputs": [
                {
                    "internalType": "address",
                    "name": "operator",
                    "type": "address"
                },
                {
                    "internalType": "bool",
                    "name": "approved",
                    "type": "bool"
                }
            ],
            "name": "setApprovalForAll",
            "outputs": [],
            "stateMutability": "nonpayable",
            "type": "function"
        },
        {
            "inputs": [
                {
                    "internalType": "bytes4",
                    "name": "interfaceId",
                    "type": "bytes4"
                }
            ],
            "name": "supportsInterface",
            "outputs": [
                {
                    "internalType": "bool",
                    "name": "",
                    "type": "bool"
                }
            ],
            "stateMutability": "view",
            "type": "function"
        },
        {
            "inputs": [],
            "name": "symbol",
            "outputs": [
                {
                    "internalType": "string",
                    "name": "",
                    "type": "string"
                }
            ],
            "stateMutability": "view",
            "type": "function"
        },
        {
            "inputs": [
                {
                    "internalType": "uint256",
                    "name": "tokenId",
                    "type": "uint256"
                }
            ],
            "name": "tokenURI",
            "outputs": [
                {
                    "internalType": "string",
                    "name": "",
                    "type": "string"
                }
            ],
            "stateMutability": "view",
            "type": "function"
        },
        {
            "inputs": [
                {
                    "internalType": "address",
                    "name": "from",
                    "type": "address"
                },
                {
                    "internalType": "address",
                    "name": "to",
                    "type": "address"
                },
                {
                    "internalType": "uint256",
                    "name": "tokenId",
                    "type": "uint256"
                }
            ],
            "name": "transferFrom",
            "outputs": [],
            "stateMutability": "nonpayable",
            "type": "function"
        },
        {
            "inputs": [
                {
                    "internalType": "address",
                    "name": "newOwner",
                    "type": "address"
                }
            ],
            "name": "transferOwnership",
            "outputs": [],
            "stateMutability": "nonpayable",
            "type": "function"
        },
        {
            "inputs": [],
            "name": "unpause",
            "outputs": [],
            "stateMutability": "nonpayable",
            "type": "function"
        }
    ],
    "bytecode": "0x60806040523480156200001157600080fd5b506040518060400160405280601581526020017f496e746572506c616e6574617279466f6e744e465400000000000000000000008152506040518060400160405280600381526020017f495046000000000000000000000000000000000000000000000000000000000081525081600090816200008f91906200042d565b508060019081620000a191906200042d565b5050506000600760006101000a81548160ff021916908315150217905550620000df620000d3620000e560201b60201c565b620000ed60201b60201c565b62000514565b600033905090565b6000600760019054906101000a900473ffffffffffffffffffffffffffffffffffffffff16905081600760016101000a81548173ffffffffffffffffffffffffffffffffffffffff021916908373ffffffffffffffffffffffffffffffffffffffff1602179055508173ffffffffffffffffffffffffffffffffffffffff168173ffffffffffffffffffffffffffffffffffffffff167f8be0079c531659141344cd1fd0a4f28419497f9722a3daafe3b4186f6b6457e060405160405180910390a35050565b600081519050919050565b7f4e487b7100000000000000000000000000000000000000000000000000000000600052604160045260246000fd5b7f4e487b7100000000000000000000000000000000000000000000000000000000600052602260045260246000fd5b600060028204905060018216806200023557607f821691505b6020821081036200024b576200024a620001ed565b5b50919050565b60008190508160005260206000209050919050565b60006020601f8301049050919050565b600082821b905092915050565b600060088302620002b57fffffffffffffffffffffffffffffffffffffffffffffffffffffffffffffffff8262000276565b620002c1868362000276565b95508019841693508086168417925050509392505050565b6000819050919050565b6000819050919050565b60006200030e620003086200030284620002d9565b620002e3565b620002d9565b9050919050565b6000819050919050565b6200032a83620002ed565b62000342620003398262000315565b84845462000283565b825550505050565b600090565b620003596200034a565b620003668184846200031f565b505050565b5b818110156200038e57620003826000826200034f565b6001810190506200036c565b5050565b601f821115620003dd57620003a78162000251565b620003b28462000266565b81016020851015620003c2578190505b620003da620003d18562000266565b8301826200036b565b50505b505050565b600082821c905092915050565b60006200040260001984600802620003e2565b1980831691505092915050565b60006200041d8383620003ef565b9150826002028217905092915050565b6200043882620001b3565b67ffffffffffffffff811115620004545762000453620001be565b5b6200046082546200021c565b6200046d82828562000392565b600060209050601f831160018114620004a5576000841562000490578287015190505b6200049c85826200040f565b8655506200050c565b601f198416620004b58662000251565b60005b82811015620004df57848901518255600182019150602085019450602081019050620004b8565b86831015620004ff5784890151620004fb601f891682620003ef565b8355505b6001600288020188555050505b505050505050565b61335c80620005246000396000f3fe608060405234801561001057600080fd5b50600436106101375760003560e01c806370a08231116100b8578063a22cb4651161007c578063a22cb46514610302578063b88d4fde1461031e578063c87b56dd1461033a578063d204c45e1461036a578063e985e9c51461039a578063f2fde38b146103ca57610137565b806370a0823114610282578063715018a6146102b25780638456cb59146102bc5780638da5cb5b146102c657806395d89b41146102e457610137565b80633f4ba83a116100ff5780633f4ba83a146101f257806342842e0e146101fc57806342966c68146102185780635c975abb146102345780636352211e1461025257610137565b806301ffc9a71461013c57806306fdde031461016c578063081812fc1461018a578063095ea7b3146101ba57806323b872dd146101d6575b600080fd5b61015660048036038101906101519190611f05565b6103e6565b6040516101639190611f4d565b60405180910390f35b6101746104c8565b6040516101819190611ff8565b60405180910390f35b6101a4600480360381019061019f9190612050565b61055a565b6040516101b191906120be565b60405180910390f35b6101d460048036038101906101cf9190612105565b6105a0565b005b6101f060048036038101906101eb9190612145565b6106b7565b005b6101fa610717565b005b61021660048036038101906102119190612145565b610729565b005b610232600480360381019061022d9190612050565b610749565b005b61023c6107a5565b6040516102499190611f4d565b60405180910390f35b61026c60048036038101906102679190612050565b6107bc565b60405161027991906120be565b60405180910390f35b61029c60048036038101906102979190612198565b61086d565b6040516102a991906121d4565b60405180910390f35b6102ba610924565b005b6102c4610938565b005b6102ce61094a565b6040516102db91906120be565b60405180910390f35b6102ec610974565b6040516102f99190611ff8565b60405180910390f35b61031c6004803603810190610317919061221b565b610a06565b005b61033860048036038101906103339190612390565b610a1c565b005b610354600480360381019061034f9190612050565b610a7e565b6040516103619190611ff8565b60405180910390f35b610384600480360381019061037f91906124b4565b610a90565b60405161039191906121d4565b60405180910390f35b6103b460048036038101906103af9190612510565b610ac7565b6040516103c19190611f4d565b60405180910390f35b6103e460048036038101906103df9190612198565b610b5b565b005b60007f80ac58cd000000000000000000000000000000000000000000000000000000007bffffffffffffffffffffffffffffffffffffffffffffffffffffffff1916827bffffffffffffffffffffffffffffffffffffffffffffffffffffffff191614806104b157507f5b5e139f000000000000000000000000000000000000000000000000000000007bffffffffffffffffffffffffffffffffffffffffffffffffffffffff1916827bffffffffffffffffffffffffffffffffffffffffffffffffffffffff1916145b806104c157506104c082610bde565b5b9050919050565b6060600080546104d79061257f565b80601f01602080910402602001604051908101604052809291908181526020018280546105039061257f565b80156105505780601f1061052557610100808354040283529160200191610550565b820191906000526020600020905b81548152906001019060200180831161053357829003601f168201915b5050505050905090565b600061056582610c48565b6004600083815260200190815260200160002060009054906101000a900473ffffffffffffffffffffffffffffffffffffffff169050919050565b60006105ab826107bc565b90508073ffffffffffffffffffffffffffffffffffffffff168373ffffffffffffffffffffffffffffffffffffffff160361061b576040517f08c379a000000000000000000000000000000000000000000000000000000000815260040161061290612622565b60405180910390fd5b8073ffffffffffffffffffffffffffffffffffffffff1661063a610c93565b73ffffffffffffffffffffffffffffffffffffffff161480610669575061066881610663610c93565b610ac7565b5b6106a8576040517f08c379a000000000000000000000000000000000000000000000000000000000815260040161069f906126b4565b60405180910390fd5b6106b28383610c9b565b505050565b6106c86106c2610c93565b82610d54565b610707576040517f08c379a00000000000000000000000000000000000000000000000000000000081526004016106fe90612746565b60405180910390fd5b610712838383610de9565b505050565b61071f61104f565b6107276110cd565b565b61074483838360405180602001604052806000815250610a1c565b505050565b61075a610754610c93565b82610d54565b610799576040517f08c379a000000000000000000000000000000000000000000000000000000000815260040161079090612746565b60405180910390fd5b6107a281611130565b50565b6000600760009054906101000a900460ff16905090565b6000806002600084815260200190815260200160002060009054906101000a900473ffffffffffffffffffffffffffffffffffffffff169050600073ffffffffffffffffffffffffffffffffffffffff168173ffffffffffffffffffffffffffffffffffffffff1603610864576040517f08c379a000000000000000000000000000000000000000000000000000000000815260040161085b906127b2565b60405180910390fd5b80915050919050565b60008073ffffffffffffffffffffffffffffffffffffffff168273ffffffffffffffffffffffffffffffffffffffff16036108dd576040517f08c379a00000000000000000000000000000000000000000000000000000000081526004016108d490612844565b60405180910390fd5b600360008373ffffffffffffffffffffffffffffffffffffffff1673ffffffffffffffffffffffffffffffffffffffff168152602001908152602001600020549050919050565b61092c61104f565b610936600061113c565b565b61094061104f565b610948611202565b565b6000600760019054906101000a900473ffffffffffffffffffffffffffffffffffffffff16905090565b6060600180546109839061257f565b80601f01602080910402602001604051908101604052809291908181526020018280546109af9061257f565b80156109fc5780601f106109d1576101008083540402835291602001916109fc565b820191906000526020600020905b8154815290600101906020018083116109df57829003601f168201915b5050505050905090565b610a18610a11610c93565b8383611265565b5050565b610a2d610a27610c93565b83610d54565b610a6c576040517f08c379a0000000000000000000000000000000000000000000000000000000008152600401610a6390612746565b60405180910390fd5b610a78848484846113d1565b50505050565b6060610a898261142d565b9050919050565b600080610a9d600861153f565b9050610aa9600861154d565b610ab38482611563565b610abd8184611581565b8091505092915050565b6000600560008473ffffffffffffffffffffffffffffffffffffffff1673ffffffffffffffffffffffffffffffffffffffff16815260200190815260200160002060008373ffffffffffffffffffffffffffffffffffffffff1673ffffffffffffffffffffffffffffffffffffffff16815260200190815260200160002060009054906101000a900460ff16905092915050565b610b6361104f565b600073ffffffffffffffffffffffffffffffffffffffff168173ffffffffffffffffffffffffffffffffffffffff1603610bd2576040517f08c379a0000000000000000000000000000000000000000000000000000000008152600401610bc9906128d6565b60405180910390fd5b610bdb8161113c565b50565b60007f01ffc9a7000000000000000000000000000000000000000000000000000000007bffffffffffffffffffffffffffffffffffffffffffffffffffffffff1916827bffffffffffffffffffffffffffffffffffffffffffffffffffffffff1916149050919050565b610c51816115ee565b610c90576040517f08c379a0000000000000000000000000000000000000000000000000000000008152600401610c87906127b2565b60405180910390fd5b50565b600033905090565b816004600083815260200190815260200160002060006101000a81548173ffffffffffffffffffffffffffffffffffffffff021916908373ffffffffffffffffffffffffffffffffffffffff160217905550808273ffffffffffffffffffffffffffffffffffffffff16610d0e836107bc565b73ffffffffffffffffffffffffffffffffffffffff167f8c5be1e5ebec7d5bd14f71427d1e84f3dd0314c0f7b2291e5b200ac8c7c3b92560405160405180910390a45050565b600080610d60836107bc565b90508073ffffffffffffffffffffffffffffffffffffffff168473ffffffffffffffffffffffffffffffffffffffff161480610da25750610da18185610ac7565b5b80610de057508373ffffffffffffffffffffffffffffffffffffffff16610dc88461055a565b73ffffffffffffffffffffffffffffffffffffffff16145b91505092915050565b8273ffffffffffffffffffffffffffffffffffffffff16610e09826107bc565b73ffffffffffffffffffffffffffffffffffffffff1614610e5f576040517f08c379a0000000000000000000000000000000000000000000000000000000008152600401610e5690612968565b60405180910390fd5b600073ffffffffffffffffffffffffffffffffffffffff168273ffffffffffffffffffffffffffffffffffffffff1603610ece576040517f08c379a0000000000000000000000000000000000000000000000000000000008152600401610ec5906129fa565b60405180910390fd5b610ed983838361165a565b610ee4600082610c9b565b6001600360008573ffffffffffffffffffffffffffffffffffffffff1673ffffffffffffffffffffffffffffffffffffffff1681526020019081526020016000206000828254610f349190612a49565b925050819055506001600360008473ffffffffffffffffffffffffffffffffffffffff1673ffffffffffffffffffffffffffffffffffffffff1681526020019081526020016000206000828254610f8b9190612a7d565b92505081905550816002600083815260200190815260200160002060006101000a81548173ffffffffffffffffffffffffffffffffffffffff021916908373ffffffffffffffffffffffffffffffffffffffff160217905550808273ffffffffffffffffffffffffffffffffffffffff168473ffffffffffffffffffffffffffffffffffffffff167fddf252ad1be2c89b69c2b068fc378daa952ba7f163c4a11628f55a4df523b3ef60405160405180910390a461104a838383611672565b505050565b611057610c93565b73ffffffffffffffffffffffffffffffffffffffff1661107561094a565b73ffffffffffffffffffffffffffffffffffffffff16146110cb576040517f08c379a00000000000000000000000000000000000000000000000000000000081526004016110c290612afd565b60405180910390fd5b565b6110d5611677565b6000600760006101000a81548160ff0219169083151502179055507f5db9ee0a495bf2e6ff9c91a7834c1ba4fdd244a5e8aa4e537bd38aeae4b073aa611119610c93565b60405161112691906120be565b60405180910390a1565b611139816116c0565b50565b6000600760019054906101000a900473ffffffffffffffffffffffffffffffffffffffff16905081600760016101000a81548173ffffffffffffffffffffffffffffffffffffffff021916908373ffffffffffffffffffffffffffffffffffffffff1602179055508173ffffffffffffffffffffffffffffffffffffffff168173ffffffffffffffffffffffffffffffffffffffff167f8be0079c531659141344cd1fd0a4f28419497f9722a3daafe3b4186f6b6457e060405160405180910390a35050565b61120a611713565b6001600760006101000a81548160ff0219169083151502179055507f62e78cea01bee320cd4e420270b5ea74000d11b0c9f74754ebdbfc544b05a25861124e610c93565b60405161125b91906120be565b60405180910390a1565b8173ffffffffffffffffffffffffffffffffffffffff168373ffffffffffffffffffffffffffffffffffffffff16036112d3576040517f08c379a00000000000000000000000000000000000000000000000000000000081526004016112ca90612b69565b60405180910390fd5b80600560008573ffffffffffffffffffffffffffffffffffffffff1673ffffffffffffffffffffffffffffffffffffffff16815260200190815260200160002060008473ffffffffffffffffffffffffffffffffffffffff1673ffffffffffffffffffffffffffffffffffffffff16815260200190815260200160002060006101000a81548160ff0219169083151502179055508173ffffffffffffffffffffffffffffffffffffffff168373ffffffffffffffffffffffffffffffffffffffff167f17307eab39ab6107e8899845ad3d59bd9653f200f220920489ca2b5937696c31836040516113c49190611f4d565b60405180910390a3505050565b6113dc848484610de9565b6113e88484848461175d565b611427576040517f08c379a000000000000000000000000000000000000000000000000000000000815260040161141e90612bfb565b60405180910390fd5b50505050565b606061143882610c48565b60006006600084815260200190815260200160002080546114589061257f565b80601f01602080910402602001604051908101604052809291908181526020018280546114849061257f565b80156114d15780601f106114a6576101008083540402835291602001916114d1565b820191906000526020600020905b8154815290600101906020018083116114b457829003601f168201915b5050505050905060006114e26118e4565b905060008151036114f757819250505061153a565b60008251111561152c578082604051602001611514929190612c57565b6040516020818303038152906040529250505061153a565b611535846118fb565b925050505b919050565b600081600001549050919050565b6001816000016000828254019250508190555050565b61157d828260405180602001604052806000815250611963565b5050565b61158a826115ee565b6115c9576040517f08c379a00000000000000000000000000000000000000000000000000000000081526004016115c090612ced565b60405180910390fd5b806006600084815260200190815260200160002090816115e99190612eb9565b505050565b60008073ffffffffffffffffffffffffffffffffffffffff166002600084815260200190815260200160002060009054906101000a900473ffffffffffffffffffffffffffffffffffffffff1673ffffffffffffffffffffffffffffffffffffffff1614159050919050565b611662611713565b61166d8383836119be565b505050565b505050565b61167f6107a5565b6116be576040517f08c379a00000000000000000000000000000000000000000000000000000000081526004016116b590612fd7565b60405180910390fd5b565b6116c9816119c3565b60006006600083815260200190815260200160002080546116e99061257f565b9050146117105760066000828152602001908152602001600020600061170f9190611e3c565b5b50565b61171b6107a5565b1561175b576040517f08c379a000000000000000000000000000000000000000000000000000000000815260040161175290613043565b60405180910390fd5b565b600061177e8473ffffffffffffffffffffffffffffffffffffffff16611ae0565b156118d7578373ffffffffffffffffffffffffffffffffffffffff1663150b7a026117a7610c93565b8786866040518563ffffffff1660e01b81526004016117c994939291906130b8565b6020604051808303816000875af192505050801561180557506040513d601f19601f820116820180604052508101906118029190613119565b60015b611887573d8060008114611835576040519150601f19603f3d011682016040523d82523d6000602084013e61183a565b606091505b50600081510361187f576040517f08c379a000000000000000000000000000000000000000000000000000000000815260040161187690612bfb565b60405180910390fd5b805181602001fd5b63150b7a0260e01b7bffffffffffffffffffffffffffffffffffffffffffffffffffffffff1916817bffffffffffffffffffffffffffffffffffffffffffffffffffffffff1916149150506118dc565b600190505b949350505050565b606060405180602001604052806000815250905090565b606061190682610c48565b60006119106118e4565b90506000815111611930576040518060200160405280600081525061195b565b8061193a84611b03565b60405160200161194b929190612c57565b6040516020818303038152906040525b915050919050565b61196d8383611c63565b61197a600084848461175d565b6119b9576040517f08c379a00000000000000000000000000000000000000000000000000000000081526004016119b090612bfb565b60405180910390fd5b505050565b505050565b60006119ce826107bc565b90506119dc8160008461165a565b6119e7600083610c9b565b6001600360008373ffffffffffffffffffffffffffffffffffffffff1673ffffffffffffffffffffffffffffffffffffffff1681526020019081526020016000206000828254611a379190612a49565b925050819055506002600083815260200190815260200160002060006101000a81549073ffffffffffffffffffffffffffffffffffffffff021916905581600073ffffffffffffffffffffffffffffffffffffffff168273ffffffffffffffffffffffffffffffffffffffff167fddf252ad1be2c89b69c2b068fc378daa952ba7f163c4a11628f55a4df523b3ef60405160405180910390a4611adc81600084611672565b5050565b6000808273ffffffffffffffffffffffffffffffffffffffff163b119050919050565b606060008203611b4a576040518060400160405280600181526020017f30000000000000000000000000000000000000000000000000000000000000008152509050611c5e565b600082905060005b60008214611b7c578080611b6590613146565b915050600a82611b7591906131bd565b9150611b52565b60008167ffffffffffffffff811115611b9857611b97612265565b5b6040519080825280601f01601f191660200182016040528015611bca5781602001600182028036833780820191505090505b5090505b60008514611c5757600182611be39190612a49565b9150600a85611bf291906131ee565b6030611bfe9190612a7d565b60f81b818381518110611c1457611c1361321f565b5b60200101907effffffffffffffffffffffffffffffffffffffffffffffffffffffffffffff1916908160001a905350600a85611c5091906131bd565b9450611bce565b8093505050505b919050565b600073ffffffffffffffffffffffffffffffffffffffff168273ffffffffffffffffffffffffffffffffffffffff1603611cd2576040517f08c379a0000000000000000000000000000000000000000000000000000000008152600401611cc99061329a565b60405180910390fd5b611cdb816115ee565b15611d1b576040517f08c379a0000000000000000000000000000000000000000000000000000000008152600401611d1290613306565b60405180910390fd5b611d276000838361165a565b6001600360008473ffffffffffffffffffffffffffffffffffffffff1673ffffffffffffffffffffffffffffffffffffffff1681526020019081526020016000206000828254611d779190612a7d565b92505081905550816002600083815260200190815260200160002060006101000a81548173ffffffffffffffffffffffffffffffffffffffff021916908373ffffffffffffffffffffffffffffffffffffffff160217905550808273ffffffffffffffffffffffffffffffffffffffff16600073ffffffffffffffffffffffffffffffffffffffff167fddf252ad1be2c89b69c2b068fc378daa952ba7f163c4a11628f55a4df523b3ef60405160405180910390a4611e3860008383611672565b5050565b508054611e489061257f565b6000825580601f10611e5a5750611e79565b601f016020900490600052602060002090810190611e789190611e7c565b5b50565b5b80821115611e95576000816000905550600101611e7d565b5090565b6000604051905090565b600080fd5b600080fd5b60007fffffffff0000000000000000000000000000000000000000000000000000000082169050919050565b611ee281611ead565b8114611eed57600080fd5b50565b600081359050611eff81611ed9565b92915050565b600060208284031215611f1b57611f1a611ea3565b5b6000611f2984828501611ef0565b91505092915050565b60008115159050919050565b611f4781611f32565b82525050565b6000602082019050611f626000830184611f3e565b92915050565b600081519050919050565b600082825260208201905092915050565b60005b83811015611fa2578082015181840152602081019050611f87565b60008484015250505050565b6000601f19601f8301169050919050565b6000611fca82611f68565b611fd48185611f73565b9350611fe4818560208601611f84565b611fed81611fae565b840191505092915050565b600060208201905081810360008301526120128184611fbf565b905092915050565b6000819050919050565b61202d8161201a565b811461203857600080fd5b50565b60008135905061204a81612024565b92915050565b60006020828403121561206657612065611ea3565b5b60006120748482850161203b565b91505092915050565b600073ffffffffffffffffffffffffffffffffffffffff82169050919050565b60006120a88261207d565b9050919050565b6120b88161209d565b82525050565b60006020820190506120d360008301846120af565b92915050565b6120e28161209d565b81146120ed57600080fd5b50565b6000813590506120ff816120d9565b92915050565b6000806040838503121561211c5761211b611ea3565b5b600061212a858286016120f0565b925050602061213b8582860161203b565b9150509250929050565b60008060006060848603121561215e5761215d611ea3565b5b600061216c868287016120f0565b935050602061217d868287016120f0565b925050604061218e8682870161203b565b9150509250925092565b6000602082840312156121ae576121ad611ea3565b5b60006121bc848285016120f0565b91505092915050565b6121ce8161201a565b82525050565b60006020820190506121e960008301846121c5565b92915050565b6121f881611f32565b811461220357600080fd5b50565b600081359050612215816121ef565b92915050565b6000806040838503121561223257612231611ea3565b5b6000612240858286016120f0565b925050602061225185828601612206565b9150509250929050565b600080fd5b600080fd5b7f4e487b7100000000000000000000000000000000000000000000000000000000600052604160045260246000fd5b61229d82611fae565b810181811067ffffffffffffffff821117156122bc576122bb612265565b5b80604052505050565b60006122cf611e99565b90506122db8282612294565b919050565b600067ffffffffffffffff8211156122fb576122fa612265565b5b61230482611fae565b9050602081019050919050565b82818337600083830152505050565b600061233361232e846122e0565b6122c5565b90508281526020810184848401111561234f5761234e612260565b5b61235a848285612311565b509392505050565b600082601f8301126123775761237661225b565b5b8135612387848260208601612320565b91505092915050565b600080600080608085870312156123aa576123a9611ea3565b5b60006123b8878288016120f0565b94505060206123c9878288016120f0565b93505060406123da8782880161203b565b925050606085013567ffffffffffffffff8111156123fb576123fa611ea8565b5b61240787828801612362565b91505092959194509250565b600067ffffffffffffffff82111561242e5761242d612265565b5b61243782611fae565b9050602081019050919050565b600061245761245284612413565b6122c5565b90508281526020810184848401111561247357612472612260565b5b61247e848285612311565b509392505050565b600082601f83011261249b5761249a61225b565b5b81356124ab848260208601612444565b91505092915050565b600080604083850312156124cb576124ca611ea3565b5b60006124d9858286016120f0565b925050602083013567ffffffffffffffff8111156124fa576124f9611ea8565b5b61250685828601612486565b9150509250929050565b6000806040838503121561252757612526611ea3565b5b6000612535858286016120f0565b9250506020612546858286016120f0565b9150509250929050565b7f4e487b7100000000000000000000000000000000000000000000000000000000600052602260045260246000fd5b6000600282049050600182168061259757607f821691505b6020821081036125aa576125a9612550565b5b50919050565b7f4552433732313a20617070726f76616c20746f2063757272656e74206f776e6560008201527f7200000000000000000000000000000000000000000000000000000000000000602082015250565b600061260c602183611f73565b9150612617826125b0565b604082019050919050565b6000602082019050818103600083015261263b816125ff565b9050919050565b7f4552433732313a20617070726f76652063616c6c6572206973206e6f7420746f60008201527f6b656e206f776e6572206e6f7220617070726f76656420666f7220616c6c0000602082015250565b600061269e603e83611f73565b91506126a982612642565b604082019050919050565b600060208201905081810360008301526126cd81612691565b9050919050565b7f4552433732313a2063616c6c6572206973206e6f7420746f6b656e206f776e6560008201527f72206e6f7220617070726f766564000000000000000000000000000000000000602082015250565b6000612730602e83611f73565b915061273b826126d4565b604082019050919050565b6000602082019050818103600083015261275f81612723565b9050919050565b7f4552433732313a20696e76616c696420746f6b656e2049440000000000000000600082015250565b600061279c601883611f73565b91506127a782612766565b602082019050919050565b600060208201905081810360008301526127cb8161278f565b9050919050565b7f4552433732313a2061646472657373207a65726f206973206e6f74206120766160008201527f6c6964206f776e65720000000000000000000000000000000000000000000000602082015250565b600061282e602983611f73565b9150612839826127d2565b604082019050919050565b6000602082019050818103600083015261285d81612821565b9050919050565b7f4f776e61626c653a206e6577206f776e657220697320746865207a65726f206160008201527f6464726573730000000000000000000000000000000000000000000000000000602082015250565b60006128c0602683611f73565b91506128cb82612864565b604082019050919050565b600060208201905081810360008301526128ef816128b3565b9050919050565b7f4552433732313a207472616e736665722066726f6d20696e636f72726563742060008201527f6f776e6572000000000000000000000000000000000000000000000000000000602082015250565b6000612952602583611f73565b915061295d826128f6565b604082019050919050565b6000602082019050818103600083015261298181612945565b9050919050565b7f4552433732313a207472616e7366657220746f20746865207a65726f2061646460008201527f7265737300000000000000000000000000000000000000000000000000000000602082015250565b60006129e4602483611f73565b91506129ef82612988565b604082019050919050565b60006020820190508181036000830152612a13816129d7565b9050919050565b7f4e487b7100000000000000000000000000000000000000000000000000000000600052601160045260246000fd5b6000612a548261201a565b9150612a5f8361201a565b9250828203905081811115612a7757612a76612a1a565b5b92915050565b6000612a888261201a565b9150612a938361201a565b9250828201905080821115612aab57612aaa612a1a565b5b92915050565b7f4f776e61626c653a2063616c6c6572206973206e6f7420746865206f776e6572600082015250565b6000612ae7602083611f73565b9150612af282612ab1565b602082019050919050565b60006020820190508181036000830152612b1681612ada565b9050919050565b7f4552433732313a20617070726f766520746f2063616c6c657200000000000000600082015250565b6000612b53601983611f73565b9150612b5e82612b1d565b602082019050919050565b60006020820190508181036000830152612b8281612b46565b9050919050565b7f4552433732313a207472616e7366657220746f206e6f6e20455243373231526560008201527f63656976657220696d706c656d656e7465720000000000000000000000000000602082015250565b6000612be5603283611f73565b9150612bf082612b89565b604082019050919050565b60006020820190508181036000830152612c1481612bd8565b9050919050565b600081905092915050565b6000612c3182611f68565b612c3b8185612c1b565b9350612c4b818560208601611f84565b80840191505092915050565b6000612c638285612c26565b9150612c6f8284612c26565b91508190509392505050565b7f45524337323155524953746f726167653a2055524920736574206f66206e6f6e60008201527f6578697374656e7420746f6b656e000000000000000000000000000000000000602082015250565b6000612cd7602e83611f73565b9150612ce282612c7b565b604082019050919050565b60006020820190508181036000830152612d0681612cca565b9050919050565b60008190508160005260206000209050919050565b60006020601f8301049050919050565b600082821b905092915050565b600060088302612d6f7fffffffffffffffffffffffffffffffffffffffffffffffffffffffffffffffff82612d32565b612d798683612d32565b95508019841693508086168417925050509392505050565b6000819050919050565b6000612db6612db1612dac8461201a565b612d91565b61201a565b9050919050565b6000819050919050565b612dd083612d9b565b612de4612ddc82612dbd565b848454612d3f565b825550505050565b600090565b612df9612dec565b612e04818484612dc7565b505050565b5b81811015612e2857612e1d600082612df1565b600181019050612e0a565b5050565b601f821115612e6d57612e3e81612d0d565b612e4784612d22565b81016020851015612e56578190505b612e6a612e6285612d22565b830182612e09565b50505b505050565b600082821c905092915050565b6000612e9060001984600802612e72565b1980831691505092915050565b6000612ea98383612e7f565b9150826002028217905092915050565b612ec282611f68565b67ffffffffffffffff811115612edb57612eda612265565b5b612ee5825461257f565b612ef0828285612e2c565b600060209050601f831160018114612f235760008415612f11578287015190505b612f1b8582612e9d565b865550612f83565b601f198416612f3186612d0d565b60005b82811015612f5957848901518255600182019150602085019450602081019050612f34565b86831015612f765784890151612f72601f891682612e7f565b8355505b6001600288020188555050505b505050505050565b7f5061757361626c653a206e6f7420706175736564000000000000000000000000600082015250565b6000612fc1601483611f73565b9150612fcc82612f8b565b602082019050919050565b60006020820190508181036000830152612ff081612fb4565b9050919050565b7f5061757361626c653a2070617573656400000000000000000000000000000000600082015250565b600061302d601083611f73565b915061303882612ff7565b602082019050919050565b6000602082019050818103600083015261305c81613020565b9050919050565b600081519050919050565b600082825260208201905092915050565b600061308a82613063565b613094818561306e565b93506130a4818560208601611f84565b6130ad81611fae565b840191505092915050565b60006080820190506130cd60008301876120af565b6130da60208301866120af565b6130e760408301856121c5565b81810360608301526130f9818461307f565b905095945050505050565b60008151905061311381611ed9565b92915050565b60006020828403121561312f5761312e611ea3565b5b600061313d84828501613104565b91505092915050565b60006131518261201a565b91507fffffffffffffffffffffffffffffffffffffffffffffffffffffffffffffffff820361318357613182612a1a565b5b600182019050919050565b7f4e487b7100000000000000000000000000000000000000000000000000000000600052601260045260246000fd5b60006131c88261201a565b91506131d38361201a565b9250826131e3576131e261318e565b5b828204905092915050565b60006131f98261201a565b91506132048361201a565b9250826132145761321361318e565b5b828206905092915050565b7f4e487b7100000000000000000000000000000000000000000000000000000000600052603260045260246000fd5b7f4552433732313a206d696e7420746f20746865207a65726f2061646472657373600082015250565b6000613284602083611f73565b915061328f8261324e565b602082019050919050565b600060208201905081810360008301526132b381613277565b9050919050565b7f4552433732313a20746f6b656e20616c7265616479206d696e74656400000000600082015250565b60006132f0601c83611f73565b91506132fb826132ba565b602082019050919050565b6000602082019050818103600083015261331f816132e3565b905091905056fea2646970667358221220e98f3367e771b31e370f8dc3d62ad9585655402a4a85bcad81c9b406c396f04164736f6c63430008100033",
    "linkReferences": {},
    "deployedLinkReferences": {}
}